:03000000020800F3
:0C080000787FE4F6D8FD758111020847EE
:0C096A000A083F065B4F666D7D077F6F3B
:10094D00E4FFFEE4FDFC0DBD00010CBC03F8BDE9A8
:0C095D00F50FBF00010EEF64654E70E75F
:01096900226B
:10091700E4FBFA7C007D0AAF03AE0212088C740870
:100927002FF8E6F5A07C007D0AAF03AE0212088C13
:1009370074082DF8E6F5B012094D0BBB00010AEB60
:0509470064644A70CE5B
:01094C002288
:10080C00020917E493A3F8E493A34003F68001F2E2
:10081C0008DFF48029E493A3F85407240CC8C333ED
:10082C00C4540F4420C8834004F456800146F6DFBC
:10083C00E4800B010204081020408090096AE47ED9
:10084C00019360BCA3FF543F30E509541FFEE493B1
:10085C00A360010ECF54C025E060A840B8E493A378
:10086C00FAE493A3F8E493A3C8C582C8CAC583CAA3
:10087C00F0A3C8C582C8CAC583CADFE9DEE780BE5B
:010976000080
:10088C00C2D5EC30E709B2D5E4C39DFDE49CFCEE87
:10089C0030E715B2D5E4C39FFFE49EFE1208C2C335
:1008AC00E49DFDE49CFC80031208C230D507C3E430
:0608BC009FFFE49EFE22F6
:1008C200BC000BBE0029EF8DF084FFADF022E4CC1A
:1008D200F875F008EF2FFFEE33FEEC33FCEE9DECE3
:1008E200984005FCEE9DFE0FD5F0E9E4CEFD22ED29
:1008F200F8F5F0EE8420D21CFEADF075F008EF2F73
:10090200FFED33FD4007985006D5F0F222C398FD63
:050912000FD5F0EA2200
:00000001FF
